:020000040000fa
:080000000002040000000000f2
:020000040000fa
:04000800960300005b
:020000040000fa
:04000c009603000057
:020000040000fa
:040010009603000053
:020000040000fa
:04001400960300004f
:020000040000fa
:04001800960300004b
:020000040000fa
:04001c009603000047
:020000040000fa
:040020009603000043
:020000040000fa
:04002400960300003f
:020000040000fa
:04002800960300003b
:020000040000fa
:04002c009603000037
:020000040000fa
:040030009603000033
:020000040000fa
:04003400960300002f
:020000040000fa
:04003800960300002b
:020000040000fa
:04003c009603000027
:020000040000fa
:040040009603000023
:020000040000fa
:04004400960300001f
:020000040000fa
:04004800960300001b
:020000040000fa
:04004c009603000017
:020000040000fa
:040050009603000013
:020000040000fa
:04005400960300000f
:020000040000fa
:04005800960300000b
:020000040000fa
:04005c009603000007
:020000040000fa
:040060009603000003
:020000040000fa
:0400640096030000ff
:020000040000fa
:0400680096030000fb
:020000040000fa
:04006c0096030000f7
:020000040000fa
:0400700096030000f3
:020000040000fa
:0400740096030000ef
:020000040000fa
:0400780096030000eb
:020000040000fa
:04007c0096030000e7
:020000040000fa
:0400800096030000e3
:020000040000fa
:0400840096030000df
:020000040000fa
:0400880096030000db
:020000040000fa
:04008c0096030000d7
:020000040000fa
:0400900096030000d3
:020000040000fa
:0400940096030000cf
:020000040000fa
:0400980096030000cb
:020000040000fa
:04009c0096030000c7
:020000040000fa
:0400a00096030000c3
:020000040000fa
:0400a40096030000bf
:020000040000fa
:0400a80096030000bb
:020000040000fa
:0400ac0096030000b7
:020000040000fa
:0400b00096030000b3
:020000040000fa
:0400b40096030000af
:020000040000fa
:0400b80096030000ab
:020000040000fa
:0400bc0096030000a7
:020000040000fa
:0400c00096030000a3
:020000040000fa
:0400c400960300009f
:020000040000fa
:0400c800960300009b
:020000040000fa
:0400cc009603000097
:020000040000fa
:0400d0009603000093
:020000040000fa
:0400d400960300008f
:020000040000fa
:0400d800960300008b
:020000040000fa
:0400dc009603000087
:020000040000fa
:0400e0009603000083
:020000040000fa
:0400e400960300007f
:020000040000fa
:0400e800960300007b
:020000040000fa
:0400ec009603000077
:020000040000fa
:0400f0009603000073
:020000040000fa
:0400f400960300006f
:020000040000fa
:0400f800960300006b
:020000040000fa
:0400fc009603000067
:020000040000fa
:040100009603000062
:020000040000fa
:04010400960300005e
:020000040000fa
:04010800960300005a
:020000040000fa
:04010c009603000056
:020000040000fa
:040110009603000052
:020000040000fa
:04011400960300004e
:020000040000fa
:04011800960300004a
:020000040000fa
:04011c009603000046
:020000040000fa
:040120009603000042
:020000040000fa
:04012400960300003e
:020000040000fa
:04012800960300003a
:020000040000fa
:04012c009603000036
:020000040000fa
:040130009603000032
:020000040000fa
:04013400960300002e
:020000040000fa
:04013800960300002a
:020000040000fa
:04013c009603000026
:020000040000fa
:040140009603000022
:020000040000fa
:04014400960300001e
:020000040000fa
:04014800960300001a
:020000040000fa
:04014c009603000016
:020000040000fa
:040150009603000012
:020000040000fa
:04015400960300000e
:020000040000fa
:04015800960300000a
:020000040000fa
:04015c009603000006
:020000040000fa
:040160009603000002
:020000040000fa
:0401640096030000fe
:020000040000fa
:0401680096030000fa
:020000040000fa
:04016c0096030000f6
:020000040000fa
:0401700096030000f2
:020000040000fa
:0401740096030000ee
:020000040000fa
:0401780096030000ea
:020000040000fa
:04017c0096030000e6
:020000040000fa
:0401800096030000e2
:020000040000fa
:0401840096030000de
:020000040000fa
:0401880096030000da
:020000040000fa
:04018c0096030000d6
:020000040000fa
:0401900096030000d2
:020000040000fa
:0401940096030000ce
:020000040000fa
:0401980096030000ca
:020000040000fa
:04019c0096030000c6
:020000040000fa
:0401a00096030000c2
:020000040000fa
:0401a40096030000be
:020000040000fa
:0401a80096030000ba
:020000040000fa
:0401ac0096030000b6
:020000040000fa
:0401b00096030000b2
:020000040000fa
:0401b40096030000ae
:020000040000fa
:0401b80096030000aa
:020000040000fa
:0401bc0096030000a6
:020000040000fa
:0401c00096030000a2
:020000040000fa
:0401c400960300009e
:020000040000fa
:0401c800960300009a
:020000040000fa
:0401cc009603000096
:020000040000fa
:0401d0009603000092
:020000040000fa
:0401d400960300008e
:020000040000fa
:0401d800960300008a
:020000040000fa
:0401dc009603000086
:020000040000fa
:0401e0009603000082
:020000040000fa
:0401e400960300007e
:020000040000fa
:0401e800960300007a
:020000040000fa
:0401ec009603000076
:020000040000fa
:0401f0009603000072
:020000040000fa
:0401f400960300006e
:020000040000fa
:0401f800960300006a
:020000040000fa
:0401fc009603000066
:020000040000fa
:040200009603000061
:020000040000fa
:04020400960300005d
:020000040000fa
:040208009603000059
:020000040000fa
:04020c009603000055
:020000040000fa
:040210009603000051
:020000040000fa
:04021400960300004d
:020000040000fa
:040218009603000049
:020000040000fa
:04021c009603000045
:020000040000fa
:040220009603000041
:020000040000fa
:04022400960300003d
:020000040000fa
:040228009603000039
:020000040000fa
:04022c009603000035
:020000040000fa
:040230009603000031
:020000040000fa
:04023400960300002d
:020000040000fa
:040238009603000029
:020000040000fa
:04023c009603000025
:020000040000fa
:040240009603000021
:020000040000fa
:04024400960300001d
:020000040000fa
:040248009603000019
:020000040000fa
:04024c009603000015
:020000040000fa
:040250009603000011
:020000040000fa
:04025400960300000d
:020000040000fa
:040258009603000009
:020000040000fa
:04025c009603000005
:020000040000fa
:040260009603000001
:020000040000fa
:0402640096030000fd
:020000040000fa
:0402680096030000f9
:020000040000fa
:04026c0096030000f5
:020000040000fa
:0402700096030000f1
:020000040000fa
:0402740096030000ed
:020000040000fa
:0402780096030000e9
:020000040000fa
:04027c0096030000e5
:020000040000fa
:0402800096030000e1
:020000040000fa
:0402840096030000dd
:020000040000fa
:0402880096030000d9
:020000040000fa
:04028c0096030000d5
:020000040000fa
:0402900096030000d1
:020000040000fa
:0402940096030000cd
:020000040000fa
:0402980096030000c9
:020000040000fa
:04029c0096030000c5
:020000040000fa
:0402a00096030000c1
:020000040000fa
:0402a40096030000bd
:020000040000fa
:0402a80096030000b9
:020000040000fa
:0402ac0096030000b5
:020000040000fa
:0402b00096030000b1
:020000040000fa
:0402b40096030000ad
:020000040000fa
:0402b80096030000a9
:020000040000fa
:0402bc0096030000a5
:020000040000fa
:0402c00096030000a1
:020000040000fa
:0402c400960300009d
:020000040000fa
:0402c8009603000099
:020000040000fa
:0402cc009603000095
:020000040000fa
:0402d0009603000091
:020000040000fa
:0402d400960300008d
:020000040000fa
:0402d8009603000089
:020000040000fa
:0402dc009603000085
:020000040000fa
:0402e0009603000081
:020000040000fa
:0402e400960300007d
:020000040000fa
:0402e8009603000079
:020000040000fa
:0402ec009603000075
:020000040000fa
:0402f0009603000071
:020000040000fa
:0402f400960300006d
:020000040000fa
:0402f8009603000069
:020000040000fa
:0402fc009603000065
:020000040000fa
:040300009603000060
:020000040000fa
:04030400960300005c
:020000040000fa
:040308009603000058
:020000040000fa
:04030c009603000054
:020000040000fa
:040310009603000050
:020000040000fa
:04031400960300004c
:020000040000fa
:040318009603000048
:020000040000fa
:04031c009603000044
:020000040000fa
:040320009603000040
:020000040000fa
:100400000f0021000eff24000e01880000002000d4
:100410000000e000020032000001200020028800fd
:1004200014000700c30007000000e00003003a00ca
:100430000000200001002000020037000000200022
:1004400001002000810f70004220ae000f00070065
:10045000000020000000e0004220ae00000002008a
:1004600000000000b8030200000000000040da00b5
:100470000000fe00200020000000e000020032002a
:10048000100020009001880000000600a1028800f2
:10049000800478000000eb001f003700e284440075
:1004a00054a0b4009905ba00e284440054a0b400fa
:1004b0009906ba00e284440054a0b4000006eb00a0
:1004c000476fde00fd07b200ae018800636ce100fb
:1004d00003003a000ad801000000eb000e003700cc
:1004e000606ce10008003a00004deb000a05e800ee
:1004f000020039003420ec000af0a0008b05e9006e
:10050000f9ff3e00040037006168e100010032009d
:100510000086eb000b00070019c7ba001905ba00e6
:100520000e04e00003003a000a00e000dbff3a009e
:1005300000000600fe07b200ae0288008a047800c0
:10054000f5ff37000cd0a300e20f4d001c003b006c
:1005500089027800354dba000a05e800020039002a
:100560003420ec000af0a0008b05e9000f003200f7
:10057000254dba000a05e800020039003420ec00dd
:100580000af0a0008b05e900080032000c00e00032
:100590000600320015cdba000a05e8000200390055
:1005a0003420ec000af0a0008b05e9008984e80003
:1005b00054a0b4000b00e000e2ff3a000000060087
:1005c0009902ba00055d78008b05e900f7ff32005b
:1005d000c82ade00055d78008b05e900f3ff3200d4
:1005e0000c00e000f1ff320019ddba00eeff370029
:1005f0006100e10001003200100005005400f80025
:1006000010102000a002880000f925001000ba0098
:100610005400f9000700220000f0a6008703d10073
:100620000703780001c4fe000003eb000120200056
:1006300091018800013d2800111303008703e900a0
:10064000fdff3a0000f0a7000000050000f0a00048
:1006500080c4fe0086037800f3ff37000408200002
:10066000010037000002eb006100e10001003200f0
:10067000100005003200f8003400f8008102780014
:10068000930188003200be000100e0000c0032003f
:100690000470a70000f0a00032037800c733de002a
:1006a000848343004220af008703e800a70188004d
:1006b000f607b2007f30e100040032002000200085
:1006c0003400f9003200f900000006008100e90062
:1006d0000500e00003003a00018009003210030029
:1006e000e8ff37000180090032900300d561ae00b9
:1006f000e4ff370030002000f1ff370050052000f4
:10070000b00e8800a00a2000b00e8800d3e1a80037
:100710000000060050052000b00e8800a00a20004e
:10072000b00e8800d3e1a900000006000040da0006
:080730000000fe0000000500be
:020000040000fa
:10073800f03fb1000180b10006003500ee0309006a
:1007480000000000403fb1000180b100fbff3d0008
:100758001000b000203fb000020035000080090002
:08076800000000000000060083
:020000040000fa
:100770000000fa001e8ea900228ea900228ea80079
:1007800000482800e1012000ebff0700228ea900ad
:1007900000482800e1012000e7ff0700f7ff3700cd
:020000040000fa
:0407a000ffffff0058
:020000040000fa
:020000040002f8
:04be3000f8ffff0018
:020000040000fa
:020000040002f8
:04be3800fdffff000b
:020000040000fa
:020000040002f8
:04be4000ff7fff0081
:020000040000fa
:020000040002f8
:04be5000ddffff0013
:00000001FF
